S0110000415438355F54454D502E737265637C
S11300000EC028C027C026C025C024C023C022C0DB
S113001021C020C029C21EC01DC01CC01BC0112489
S11300201FBECFE5D2E0DEBFCDBF10E0A0E6B0E05A
S1130030E8EFF6E002C005900D92A636B107D9F7B5
S113004020E0A6E6B0E001C01D92AD38B207E1F7AA
S1130050DCD250C3D5CF98E038E1262F282720FDE5
S113006002C0669503C063276695606886959150C3
S1130070A1F7862F0895EF92FF920F931F93CF93CA
S1130080DF937C018C01095F1F4FEC0160E08991D3
S1130090E2DF682FC017D107D1F781E0F70197811C
S11300A0691301C080E0DF91CF911F910F91FF9000
S11300B0EF90089597B38095982397BB98B38923BD
S11300C088BB8FEB93E00197F1F700C0000008951F
S11300D09FB7F89427B3282B27BB28B380952823F0
S11300E028BB20E12A95F1F727B3282327BB28B39F
S11300F0822388BB8AEA8A95F1F700C09FBF0895DE
S11301009FB7F89427B3282B27BB28B380952823BF
S113011028BB20EA2A95F1F727B3282327BB28B365
S1130120822388BB8AE18A95F1F700C09FBF0895B6
S11301301F93CF93DF93D82F162FC8E0D0FF03C0AF
S1130140812FC6DF02C0812FDBDFD695C150B1F706
S1130150DF91CF911F910895FF920F931F93CF9337
S1130160DF93EC01F62E85E5E3DF8E01085F1F4F78
S11301706F2D8991DDDFC017D107D1F7DF91CF91C2
S11301801F910F91FF9008952FB7F89497B3982B70
S113019097BB38B3982F9095392338BB30E13A9503
S11301A0F1F737B3392337BB38B3932398BB98E1BE
S11301B09A95F1F796B332E93A95F1F700C02FBF5B
S11301C089230895BF92CF92DF92EF92FF920F930B
S11301D01F93CF93DF93EC01C62EF42E642F80EF90
S11301E0A7DF11E0B12C01E0DD24D3948F2DCCDF07
S11301F0E82E8F2DC9DFEE2099F181112EC0988150
S1130200912B988319C0912F9095288192239883DC
S113021013C00C1104C08881812B88830DC0C016C3
S113022038F4812F8095988189238883B02E04C067
S11302308881812339F003C09881912321F08F2D87
S113024047DF03C0B02E8F2D5BDF0F5F110F11F45A
S113025021961D2D013451F606C0BB24BA9403C067
S11302608111D1CFD6CF8B2DDF91CF911F910F91DB
S1130270FF90EF90DF90CF90BF9008951F93CF939E
S1130280DF93182FD8E0C0E0C695812F7DDF811160
S1130290C068D150C9F78C2FDF91CF911F91089579
S11302A02FB7F89497B3982B97BB38B3982F9095A2
S11302B0392338BBEFEBF3E03197F1F700C00000CE
S11302C037B3392337BB38B3932398BBFAEBFA958A
S11302D0F1F700C096B3E3E3F3E03197F1F700C020
S11302E000002FBF9095892308958F929F92AF921B
S11302F0BF92CF92DF92EF92FF920F931F93CF930F
S1130300DF938C01842F662301F1F801389690E085
S1130310DF0118971C92DF0117971C92DF011697D3
S11303201C92DF0115971C92DF0114971C92DF01C8
S113033013971C92DF0112971C92DF0111971C92F4
S113034010829F5F39969613E3CFAADF982EE801B7
S113035021966894EE24E3F8F12CCC24C394D12C98
S1130360812C6894AA24A3F88C2D8921B1F1EC2F57
S1130370FD2FB82C01C0E901DE018A2D01900D92F8
S11303808A95E1F78C2D8CDF4C2D6B2DCE011ADF75
S1130390B82E2D2D30E0F901EE0FFF1FEE0FFF1FD9
S11303A0EE0FFF1F2E0F3F1FF801E20FF31FC08255
S11303B0D3942D2D30E0C901880F991F880F991F00
S11303C0880F991F280F391F200F311F2F5F3F4FB0
S11303D0EC2FFD2FB110CFCFE901CC0C81E0E81A4E
S11303E0F10809F0C1CFDD2069F0C0E0C801019631
S11303F042DE813049F0CF5F075F1F4FCD11F6CF4A
S113040080E003C080E001C08FEFDF91CF911F91A6
S11304100F91FF90EF90DF90CF90BF90AF909F909F
S11304208F900895FB01442379F09181981771F01E
S113043090E003C02181281749F039969F5F9413F7
S1130440F9CFE0E0F0E002C0E0E0F0E08E2F9F2F73
S1130450089582E08ABD89B7806189BF83E489BD3C
S113046083B7836083BF08951F920F920FB60F92D4
S113047011242F933F934F938F939F932091650063
S1130480283018F081E090E002C08FE590E0322F30
S11304903850383010F480E090E0322F3051303151
S11304A020F48091600090916100322F30523830F6
S11304B010F48EE690E0283210F088EB90E0209162
S11304C0660021115AC020918C00222309F455C0E2
S11304D0C49A409164002091620030916300042E1C
S11304E002C0369527950A94E2F782239323892B39
S11304F021F089E080938B0003C084E080938B001B
S1130500809165008F5F80936500883019F41092A4
S1130510640012C08E3021F04F5F409364000CC021
S113052086E08093640086E18093650080E090E833
S1130530909363008093620080916500803249F457
S11305401092640080E890E09093630080936200CE
S113055015C0883219F41092640010C08D3271F401
S113056080918C00815080938C00109264001092D2
S1130570650082E180938B0001C0C498809166007D
S11305808F5F8093660090918B00891302C0109254
S113059066009F918F914F913F912F910F900FBEC5
S11305A00F901F9018951F93CF93DF93182FEB0193
S11305B077DE8823F9F0612FCE01CEDD612F84E44C
S11305C0B7DD812FE1DD8823E1F3812F69DE882304
S11305D0A1F0612FCE01C0DD612F8EEBA9DD812F4B
S11305E04DDEC82FD0E0812F49DE382F20E02C2BA0
S11305F03D2B05C028E13CEF02C028E13CEF822FEF
S1130600932FDF91CF911F910895F894BC9ABB98D2
S113061020DF88E04FDD48E064E087E690E065DEB7
S11306208111F9CF44E067E670E088E2FBDEEC017B
S113063078947C012FEFE21AF20A08EE13E00F2EF1
S1130640F4E1DF2EF02D209721F1B7018881ABDF93
S11306509C018F70992761E772E026D0B80136D0EB
S1130660359527953595279535952795359527956E
S1130670C901880F991F880F991F280F391F220F4E
S1130680331F620F731F7093610060936000D092F8
S11306908C003AEA86EE96E921E0315080409040A1
S11306A02040D9F70000CFCF5527002480FF02C097
S11306B0060E571F660F771F6115710521F0969579
S11306C08795009799F7952F802D0895AA1BBB1B3A
S11306D051E107C0AA1FBB1FA617B70710F0A61B3E
S11306E0B70B881F991F5A95A9F780959095BC015F
S10B06F0CD010895F894FFCF39
S10906F8FF0380000B0B60
S9030000FC
